{
  "contractName": "Bank",
  "abi": [
    {
      "inputs": [
        {
          "internalType": "contract Tether",
          "name": "_tether",
          "type": "address"
        },
        {
          "internalType": "contract JavuToken",
          "name": "_javuToken",
          "type": "address"
        }
      ],
      "stateMutability": "nonpayable",
      "type": "constructor"
    },
    {
      "inputs": [
        {
          "internalType": "address",
          "name": "",
          "type": "address"
        }
      ],
      "name": "hasStaked",
      "outputs": [
        {
          "internalType": "bool",
          "name": "",
          "type": "bool"
        }
      ],
      "stateMutability": "view",
      "type": "function"
    },
    {
      "inputs": [
        {
          "internalType": "address",
          "name": "",
          "type": "address"
        }
      ],
      "name": "isStaking",
      "outputs": [
        {
          "internalType": "bool",
          "name": "",
          "type": "bool"
        }
      ],
      "stateMutability": "view",
      "type": "function"
    },
    {
      "inputs": [],
      "name": "javuToken",
      "outputs": [
        {
          "internalType": "contract JavuToken",
          "name": "",
          "type": "address"
        }
      ],
      "stateMutability": "view",
      "type": "function"
    },
    {
      "inputs": [],
      "name": "name",
      "outputs": [
        {
          "internalType": "string",
          "name": "",
          "type": "string"
        }
      ],
      "stateMutability": "view",
      "type": "function"
    },
    {
      "inputs": [],
      "name": "owner",
      "outputs": [
        {
          "internalType": "address",
          "name": "",
          "type": "address"
        }
      ],
      "stateMutability": "view",
      "type": "function"
    },
    {
      "inputs": [
        {
          "internalType": "uint256",
          "name": "",
          "type": "uint256"
        }
      ],
      "name": "stakers",
      "outputs": [
        {
          "internalType": "address",
          "name": "",
          "type": "address"
        }
      ],
      "stateMutability": "view",
      "type": "function"
    },
    {
      "inputs": [
        {
          "internalType": "address",
          "name": "",
          "type": "address"
        }
      ],
      "name": "stakingBalance",
      "outputs": [
        {
          "internalType": "uint256",
          "name": "",
          "type": "uint256"
        }
      ],
      "stateMutability": "view",
      "type": "function"
    },
    {
      "inputs": [],
      "name": "tether",
      "outputs": [
        {
          "internalType": "contract Tether",
          "name": "",
          "type": "address"
        }
      ],
      "stateMutability": "view",
      "type": "function"
    },
    {
      "inputs": [
        {
          "internalType": "uint256",
          "name": "_amount",
          "type": "uint256"
        }
      ],
      "name": "depositToken",
      "outputs": [],
      "stateMutability": "nonpayable",
      "type": "function"
    },
    {
      "inputs": [],
      "name": "issueToken",
      "outputs": [],
      "stateMutability": "nonpayable",
      "type": "function"
    },
    {
      "inputs": [],
      "name": "unstakeToken",
      "outputs": [],
      "stateMutability": "nonpayable",
      "type": "function"
    }
  ],
  "bytecode": "0x60806040526040518060400160405280600e81526020017f42616e6b206f662043727970746f000000000000000000000000000000000000815250600090805190602001906200005192919062000150565b503480156200005f57600080fd5b50604051620014d1380380620014d18339818101604052810190620000859190620002c3565b81600260006101000a81548173ffffffffffffffffffffffffffffffffffffffff021916908373ffffffffffffffffffffffffffffffffffffffff16021790555080600360006101000a81548173ffffffffffffffffffffffffffffffffffffffff021916908373ffffffffffffffffffffffffffffffffffffffff16021790555033600160006101000a81548173ffffffffffffffffffffffffffffffffffffffff021916908373ffffffffffffffffffffffffffffffffffffffff16021790555050506200036f565b8280546200015e9062000339565b90600052602060002090601f016020900481019282620001825760008555620001ce565b82601f106200019d57805160ff1916838001178555620001ce565b82800160010185558215620001ce579182015b82811115620001cd578251825591602001919060010190620001b0565b5b509050620001dd9190620001e1565b5090565b5b80821115620001fc576000816000905550600101620001e2565b5090565b600080fd5b600073ffffffffffffffffffffffffffffffffffffffff82169050919050565b6000620002328262000205565b9050919050565b6000620002468262000225565b9050919050565b620002588162000239565b81146200026457600080fd5b50565b60008151905062000278816200024d565b92915050565b60006200028b8262000225565b9050919050565b6200029d816200027e565b8114620002a957600080fd5b50565b600081519050620002bd8162000292565b92915050565b60008060408385031215620002dd57620002dc62000200565b5b6000620002ed8582860162000267565b92505060206200030085828601620002ac565b9150509250929050565b7f4e487b7100000000000000000000000000000000000000000000000000000000600052602260045260246000fd5b600060028204905060018216806200035257607f821691505b602082108114156200036957620003686200030a565b5b50919050565b611152806200037f6000396000f3fe608060405234801561001057600080fd5b50600436106100a95760003560e01c80636f49712b116100715780636f49712b146101405780638da5cb5b14610170578063a1ee8c781461018e578063c93c8f3414610198578063cfa18d69146101c8578063fd5e6dd1146101e6576100a9565b806306fdde03146100ae57806320eb640c146100cc57806345bc78ab146100d65780635efc071a146101065780636215be7714610124575b600080fd5b6100b6610216565b6040516100c39190610ae6565b60405180910390f35b6100d46102a4565b005b6100f060048036038101906100eb9190610b6b565b61046c565b6040516100fd9190610bb1565b60405180910390f35b61010e610484565b60405161011b9190610c2b565b60405180910390f35b61013e60048036038101906101399190610c72565b6104aa565b005b61015a60048036038101906101559190610b6b565b610786565b6040516101679190610cba565b60405180910390f35b6101786107a6565b6040516101859190610ce4565b60405180910390f35b6101966107cc565b005b6101b260048036038101906101ad9190610b6b565b6109c8565b6040516101bf9190610cba565b60405180910390f35b6101d06109e8565b6040516101dd9190610d20565b60405180910390f35b61020060048036038101906101fb9190610c72565b610a0e565b60405161020d9190610ce4565b60405180910390f35b6000805461022390610d6a565b80601f016020809104026020016040519081016040528092919081815260200182805461024f90610d6a565b801561029c5780601f106102715761010080835404028352916020019161029c565b820191906000526020600020905b81548152906001019060200180831161027f57829003601f168201915b505050505081565b6000600760003373ffffffffffffffffffffffffffffffffffffffff1673ffffffffffffffffffffffffffffffffffffffff1681526020019081526020016000205490506000811161032b576040517f08c379a000000000000000000000000000000000000000000000000000000000815260040161032290610de8565b60405180910390fd5b600260009054906101000a900473ffffffffffffffffffffffffffffffffffffffff1673ffffffffffffffffffffffffffffffffffffffff1663a9059cbb33836040518363ffffffff1660e01b8152600401610388929190610e08565b6020604051808303816000875af11580156103a7573d6000803e3d6000fd5b505050506040513d601f19601f820116820180604052508101906103cb9190610e5d565b506000600760003373ffffffffffffffffffffffffffffffffffffffff1673ffffffffffffffffffffffffffffffffffffffff168152602001908152602001600020819055506000600660003373ffffffffffffffffffffffffffffffffffffffff1673ffffffffffffffffffffffffffffffffffffffff16815260200190815260200160002060006101000a81548160ff02191690831515021790555050565b60076020528060005260406000206000915090505481565b600260009054906101000a900473ffffffffffffffffffffffffffffffffffffffff1681565b600081116104ed576040517f08c379a00000000000000000000000000000000000000000000000000000000081526004016104e490610efc565b60405180910390fd5b600260009054906101000a900473ffffffffffffffffffffffffffffffffffffffff1673ffffffffffffffffffffffffffffffffffffffff166323b872dd3330846040518463ffffffff1660e01b815260040161054c93929190610f1c565b6020604051808303816000875af115801561056b573d6000803e3d6000fd5b505050506040513d601f19601f8201168201806040525081019061058f9190610e5d565b5080600760003373ffffffffffffffffffffffffffffffffffffffff1673ffffffffffffffffffffffffffffffffffffffff168152602001908152602001600020546105db9190610f82565b600760003373ffffffffffffffffffffffffffffffffffffffff1673ffffffffffffffffffffffffffffffffffffffff16815260200190815260200160002081905550600560003373ffffffffffffffffffffffffffffffffffffffff1673ffffffffffffffffffffffffffffffffffffffff16815260200190815260200160002060009054906101000a900460ff166106d3576004339080600181540180825580915050600190039060005260206000200160009091909190916101000a81548173ffffffffffffffffffffffffffffffffffffffff021916908373ffffffffffffffffffffffffffffffffffffffff1602179055505b6001600560003373ffffffffffffffffffffffffffffffffffffffff1673ffffffffffffffffffffffffffffffffffffffff16815260200190815260200160002060006101000a81548160ff0219169083151502179055506001600660003373ffffffffffffffffffffffffffffffffffffffff1673ffffffffffffffffffffffffffffffffffffffff16815260200190815260200160002060006101000a81548160ff02191690831515021790555050565b60066020528060005260406000206000915054906101000a900460ff1681565b600160009054906101000a900473ffffffffffffffffffffffffffffffffffffffff1681565b600160009054906101000a900473ffffffffffffffffffffffffffffffffffffffff1673ffffffffffffffffffffffffffffffffffffffff163373ffffffffffffffffffffffffffffffffffffffff161461085c576040517f08c379a000000000000000000000000000000000000000000000000000000000815260040161085390611024565b60405180910390fd5b60005b6004805490508110156109c55760006004828154811061088257610881611044565b5b9060005260206000200160009054906101000a900473ffffffffffffffffffffffffffffffffffffffff1690506000600760008373ffffffffffffffffffffffffffffffffffffffff1673ffffffffffffffffffffffffffffffffffffffff1681526020019081526020016000205490506000600a8261090291906110a2565b905060008211156109af57600360009054906101000a900473ffffffffffffffffffffffffffffffffffffffff1673ffffffffffffffffffffffffffffffffffffffff1663a9059cbb84836040518363ffffffff1660e01b815260040161096a929190610e08565b6020604051808303816000875af1158015610989573d6000803e3d6000fd5b505050506040513d601f19601f820116820180604052508101906109ad9190610e5d565b505b50505080806109bd906110d3565b91505061085f565b50565b60056020528060005260406000206000915054906101000a900460ff1681565b600360009054906101000a900473ffffffffffffffffffffffffffffffffffffffff1681565b60048181548110610a1e57600080fd5b906000526020600020016000915054906101000a900473ffffffffffffffffffffffffffffffffffffffff1681565b600081519050919050565b600082825260208201905092915050565b60005b83811015610a87578082015181840152602081019050610a6c565b83811115610a96576000848401525b50505050565b6000601f19601f8301169050919050565b6000610ab882610a4d565b610ac28185610a58565b9350610ad2818560208601610a69565b610adb81610a9c565b840191505092915050565b60006020820190508181036000830152610b008184610aad565b905092915050565b600080fd5b600073ffffffffffffffffffffffffffffffffffffffff82169050919050565b6000610b3882610b0d565b9050919050565b610b4881610b2d565b8114610b5357600080fd5b50565b600081359050610b6581610b3f565b92915050565b600060208284031215610b8157610b80610b08565b5b6000610b8f84828501610b56565b91505092915050565b6000819050919050565b610bab81610b98565b82525050565b6000602082019050610bc66000830184610ba2565b92915050565b6000819050919050565b6000610bf1610bec610be784610b0d565b610bcc565b610b0d565b9050919050565b6000610c0382610bd6565b9050919050565b6000610c1582610bf8565b9050919050565b610c2581610c0a565b82525050565b6000602082019050610c406000830184610c1c565b92915050565b610c4f81610b98565b8114610c5a57600080fd5b50565b600081359050610c6c81610c46565b92915050565b600060208284031215610c8857610c87610b08565b5b6000610c9684828501610c5d565b91505092915050565b60008115159050919050565b610cb481610c9f565b82525050565b6000602082019050610ccf6000830184610cab565b92915050565b610cde81610b2d565b82525050565b6000602082019050610cf96000830184610cd5565b92915050565b6000610d0a82610bf8565b9050919050565b610d1a81610cff565b82525050565b6000602082019050610d356000830184610d11565b92915050565b7f4e487b7100000000000000000000000000000000000000000000000000000000600052602260045260246000fd5b60006002820490506001821680610d8257607f821691505b60208210811415610d9657610d95610d3b565b5b50919050565b7f4e6f20746f6b656e20617661696c61626c6520746f20756e7374616b65000000600082015250565b6000610dd2601d83610a58565b9150610ddd82610d9c565b602082019050919050565b60006020820190508181036000830152610e0181610dc5565b9050919050565b6000604082019050610e1d6000830185610cd5565b610e2a6020830184610ba2565b9392505050565b610e3a81610c9f565b8114610e4557600080fd5b50565b600081519050610e5781610e31565b92915050565b600060208284031215610e7357610e72610b08565b5b6000610e8184828501610e48565b91505092915050565b7f7374616b696e6720616d6f756e74206d7573742062652067726561746572207460008201527f68616e207a65726f000000000000000000000000000000000000000000000000602082015250565b6000610ee6602883610a58565b9150610ef182610e8a565b604082019050919050565b60006020820190508181036000830152610f1581610ed9565b9050919050565b6000606082019050610f316000830186610cd5565b610f3e6020830185610cd5565b610f4b6040830184610ba2565b949350505050565b7f4e487b7100000000000000000000000000000000000000000000000000000000600052601160045260246000fd5b6000610f8d82610b98565b9150610f9883610b98565b9250827fffffffffffffffffffffffffffffffffffffffffffffffffffffffffffffffff03821115610fcd57610fcc610f53565b5b828201905092915050565b7f63616c6c6572206d7573742062652074686520206f776e657200000000000000600082015250565b600061100e601983610a58565b915061101982610fd8565b602082019050919050565b6000602082019050818103600083015261103d81611001565b9050919050565b7f4e487b7100000000000000000000000000000000000000000000000000000000600052603260045260246000fd5b7f4e487b7100000000000000000000000000000000000000000000000000000000600052601260045260246000fd5b60006110ad82610b98565b91506110b883610b98565b9250826110c8576110c7611073565b5b828204905092915050565b60006110de82610b98565b91507fffffffffffffffffffffffffffffffffffffffffffffffffffffffffffffffff82141561111157611110610f53565b5b60018201905091905056fea264697066735822122099490af2351dbe90725db59545497700a5158485f0746ad78b95b038c656f80464736f6c634300080a0033",
  "immutableReferences": {},
  "source": "// SPDX-License-Identifier: MIT\npragma solidity >=0.4.22 <0.9.0;\n\nimport \"./Tether.sol\";\nimport \"./JavuToken.sol\";\n\ncontract Bank {\n    string public name = \"Bank of Crypto\";\n    address public owner;\n    Tether public tether;\n    JavuToken public javuToken;\n    address[] public stakers;\n    mapping(address => bool) public hasStaked;\n    mapping(address => bool) public isStaking;\n    mapping(address => uint256) public stakingBalance;\n    uint256 private constant STAKE_PERCENTAGE = 10;\n\n    constructor(Tether _tether, JavuToken _javuToken) {\n        tether = _tether;\n        javuToken = _javuToken;\n        owner = msg.sender;\n    }\n\n    // Stake/deposit token\n    function depositToken(uint256 _amount) public {\n        // make sure staking amount is greater than 0\n        require(_amount > 0, \"staking amount must be greater than zero\");\n\n        // transfer tether token to smart contract for staking\n        tether.transferFrom(msg.sender, address(this), _amount);\n\n        // update staking balance of sender\n        stakingBalance[msg.sender] = stakingBalance[msg.sender] + _amount;\n\n        // check if sender has staked. otherwise, add to list of stakers\n        if (!hasStaked[msg.sender]) {\n            stakers.push(msg.sender);\n        }\n\n        // update staking status\n        hasStaked[msg.sender] = true;\n        isStaking[msg.sender] = true;\n    }\n\n    // Issue rewards/tokens to customer\n    function issueToken() public {\n        require(msg.sender == owner, \"caller must be the  owner\");\n        for (uint256 index = 0; index < stakers.length; index++) {\n            address staker = stakers[index];\n            uint256 balance = stakingBalance[staker];\n            uint256 rewardAmount = balance / STAKE_PERCENTAGE;\n            // transfer reward to staker/customer\n            if (balance > 0) {\n                javuToken.transfer(staker, rewardAmount);\n            }\n        }\n    }\n\n    // Unstake token\n    function unstakeToken() public {\n        // get customer staking balance\n        uint256 balance = stakingBalance[msg.sender];\n        require(balance > 0, \"No token available to unstake\");\n        //transfer tether token to customer from smart contract\n        tether.transfer(msg.sender, balance);\n\n        //update staking balance\n        stakingBalance[msg.sender] = 0;\n\n        //update staking status.\n        isStaking[msg.sender] = false;\n    }\n}\n",
  "sourcePath": "/Users/micsoftware/Projects/blockchain/defi-staking-app-starter/defi-staking-app-starter/contracts/Bank.sol",
  "compiler": {
    "name": "solc",
    "version": "0.8.10+commit.fc410830.Emscripten.clang"
  },
  "schemaVersion": "3.4.4",
  "updatedAt": "2022-03-16T06:05:09.484Z",
  "devdoc": {
    "kind": "dev",
    "methods": {},
    "version": 1
  },
  "userdoc": {
    "kind": "user",
    "methods": {},
    "version": 1
  }
}