{
    "contractName": "Bank",
    "abi": [
        {
            "inputs": [
                {
                    "internalType": "contract Tether",
                    "name": "_tether",
                    "type": "address"
                }
            ],
            "stateMutability": "nonpayable",
            "type": "constructor"
        },
        {
            "inputs": [],
            "name": "name",
            "outputs": [
                {
                    "internalType": "string",
                    "name": "",
                    "type": "string"
                }
            ],
            "stateMutability": "view",
            "type": "function"
        },
        {
            "inputs": [],
            "name": "owner",
            "outputs": [
                {
                    "internalType": "address",
                    "name": "",
                    "type": "address"
                }
            ],
            "stateMutability": "view",
            "type": "function"
        },
        {
            "inputs": [],
            "name": "tether",
            "outputs": [
                {
                    "internalType": "contract Tether",
                    "name": "",
                    "type": "address"
                }
            ],
            "stateMutability": "view",
            "type": "function"
        }
    ],
    "bytecode": "60c0604052600e60808190526d42616e6b206f662043727970746f60901b60a090815261002f9160009190610080565b5034801561003c57600080fd5b5060405161038938038061038983398101604081905261005b91610119565b600280546001600160a01b0319166001600160a01b0392909216919091179055610184565b82805461008c90610149565b90600052602060002090601f0160209004810192826100ae57600085556100f4565b82601f106100c757805160ff19168380011785556100f4565b828001600101855582156100f4579182015b828111156100f45782518255916020019190600101906100d9565b50610100929150610104565b5090565b5b808211156101005760008155600101610105565b60006020828403121561012b57600080fd5b81516001600160a01b038116811461014257600080fd5b9392505050565b600181811c9082168061015d57607f821691505b6020821081141561017e57634e487b7160e01b600052602260045260246000fd5b50919050565b6101f6806101936000396000f3fe608060405234801561001057600080fd5b50600436106100415760003560e01c806306fdde03146100465780635efc071a146100645780638da5cb5b1461008f575b600080fd5b61004e6100a2565b60405161005b9190610130565b60405180910390f35b600254610077906001600160a01b031681565b6040516001600160a01b03909116815260200161005b565b600154610077906001600160a01b031681565b600080546100af90610185565b80601f01602080910402602001604051908101604052809291908181526020018280546100db90610185565b80156101285780601f106100fd57610100808354040283529160200191610128565b820191906000526020600020905b81548152906001019060200180831161010b57829003601f168201915b505050505081565b600060208083528351808285015260005b8181101561015d57858101830151858201604001528201610141565b8181111561016f576000604083870101525b50601f01601f1916929092016040019392505050565b600181811c9082168061019957607f821691505b602082108114156101ba57634e487b7160e01b600052602260045260246000fd5b5091905056fea2646970667358221220a298e8d2d943affc00a8e989e7036a529cc3c8a3f63ba9e1b92d3399f5bdef7364736f6c634300080c0033",
    "sourcePath": "/Users/micsoftware/Projects/blockchain/defi-staking-app-starter/defi-staking-app-starter/contracts/Bank.sol",
    "compiler": {
        "name": "solc",
        "version": "0.8.12+commit.f00d7308"
    },
    "functionHashes": {
        "name()": "06fdde03",
        "owner()": "8da5cb5b",
        "tether()": "5efc071a"
    },
    "gasEstimates": {
        "creation": {
            "codeDepositCost": "100400",
            "executionCost": "infinite",
            "totalCost": "infinite"
        },
        "external": {
            "name()": "infinite",
            "owner()": "2359",
            "tether()": "2337"
        }
    }
}