{
    "contractName": "Tether",
    "abi": [
        {
            "inputs": [],
            "stateMutability": "nonpayable",
            "type": "constructor"
        },
        {
            "anonymous": false,
            "inputs": [
                {
                    "indexed": true,
                    "internalType": "address",
                    "name": "to",
                    "type": "address"
                },
                {
                    "indexed": true,
                    "internalType": "address",
                    "name": "from",
                    "type": "address"
                },
                {
                    "indexed": false,
                    "internalType": "uint256",
                    "name": "value",
                    "type": "uint256"
                }
            ],
            "name": "Transfer",
            "type": "event"
        },
        {
            "inputs": [
                {
                    "internalType": "address",
                    "name": "",
                    "type": "address"
                }
            ],
            "name": "balanceOf",
            "outputs": [
                {
                    "internalType": "uint256",
                    "name": "",
                    "type": "uint256"
                }
            ],
            "stateMutability": "view",
            "type": "function"
        },
        {
            "inputs": [],
            "name": "decimals",
            "outputs": [
                {
                    "internalType": "uint8",
                    "name": "",
                    "type": "uint8"
                }
            ],
            "stateMutability": "view",
            "type": "function"
        },
        {
            "inputs": [],
            "name": "minter",
            "outputs": [
                {
                    "internalType": "address",
                    "name": "",
                    "type": "address"
                }
            ],
            "stateMutability": "view",
            "type": "function"
        },
        {
            "inputs": [],
            "name": "name",
            "outputs": [
                {
                    "internalType": "string",
                    "name": "",
                    "type": "string"
                }
            ],
            "stateMutability": "view",
            "type": "function"
        },
        {
            "inputs": [],
            "name": "symbol",
            "outputs": [
                {
                    "internalType": "string",
                    "name": "",
                    "type": "string"
                }
            ],
            "stateMutability": "view",
            "type": "function"
        },
        {
            "inputs": [],
            "name": "totalSupply",
            "outputs": [
                {
                    "internalType": "uint256",
                    "name": "",
                    "type": "uint256"
                }
            ],
            "stateMutability": "view",
            "type": "function"
        },
        {
            "inputs": [
                {
                    "internalType": "address",
                    "name": "to",
                    "type": "address"
                },
                {
                    "internalType": "uint256",
                    "name": "value",
                    "type": "uint256"
                }
            ],
            "name": "transfer",
            "outputs": [
                {
                    "internalType": "bool",
                    "name": "success",
                    "type": "bool"
                }
            ],
            "stateMutability": "nonpayable",
            "type": "function"
        },
        {
            "inputs": [
                {
                    "internalType": "address",
                    "name": "from",
                    "type": "address"
                },
                {
                    "internalType": "address",
                    "name": "to",
                    "type": "address"
                },
                {
                    "internalType": "uint256",
                    "name": "value",
                    "type": "uint256"
                }
            ],
            "name": "transferFrom",
            "outputs": [
                {
                    "internalType": "bool",
                    "name": "success",
                    "type": "bool"
                }
            ],
            "stateMutability": "nonpayable",
            "type": "function"
        }
    ],
    "bytecode": "60c0604052601360808190527f4d6f636b65642054657468657220546f6b656e0000000000000000000000000060a090815261003e91600091906100ca565b50604080518082019091526005808252641b5554d11560da1b602090920191825261006b916001916100ca565b5069d3c21bcecceda10000006002556003805433610100026001600160a81b03199091161760121790553480156100a157600080fd5b5060025460035461010090046001600160a01b031660009081526004602052604090205561019e565b8280546100d690610163565b90600052602060002090601f0160209004810192826100f8576000855561013e565b82601f1061011157805160ff191683800117855561013e565b8280016001018555821561013e579182015b8281111561013e578251825591602001919060010190610123565b5061014a92915061014e565b5090565b5b8082111561014a576000815560010161014f565b600181811c9082168061017757607f821691505b6020821081141561019857634e487b7160e01b600052602260045260246000fd5b50919050565b610545806101ad6000396000f3fe608060405234801561001057600080fd5b50600436106100885760003560e01c8063313ce5671161005b578063313ce5671461011557806370a082311461013457806395d89b4114610154578063a9059cbb1461015c57600080fd5b806306fdde031461008d57806307546172146100ab57806318160ddd146100db57806323b872dd146100f2575b600080fd5b61009561016f565b6040516100a29190610396565b60405180910390f35b6003546100c39061010090046001600160a01b031681565b6040516001600160a01b0390911681526020016100a2565b6100e460025481565b6040519081526020016100a2565b610105610100366004610407565b6101fd565b60405190151581526020016100a2565b6003546101229060ff1681565b60405160ff90911681526020016100a2565b6100e4610142366004610443565b60046020526000908152604090205481565b6100956102d4565b61010561016a366004610465565b6102e1565b6000805461017c9061048f565b80601f01602080910402602001604051908101604052809291908181526020018280546101a89061048f565b80156101f55780601f106101ca576101008083540402835291602001916101f5565b820191906000526020600020905b8154815290600101906020018083116101d857829003601f168201915b505050505081565b6001600160a01b038316600090815260046020526040812054821061022157600080fd5b6001600160a01b038416600090815260046020526040812080548492906102499084906104e0565b90915550506001600160a01b038316600090815260046020526040812080548492906102769084906104f7565b92505081905550836001600160a01b0316836001600160a01b03167fddf252ad1be2c89b69c2b068fc378daa952ba7f163c4a11628f55a4df523b3ef846040516102c291815260200190565b60405180910390a35060019392505050565b6001805461017c9061048f565b3360009081526004602052604081205482106102fc57600080fd5b336000908152600460205260408120805484929061031b9084906104e0565b90915550506001600160a01b038316600090815260046020526040812080548492906103489084906104f7565b909155505060405182815233906001600160a01b038516907fddf252ad1be2c89b69c2b068fc378daa952ba7f163c4a11628f55a4df523b3ef9060200160405180910390a350600192915050565b600060208083528351808285015260005b818110156103c3578581018301518582016040015282016103a7565b818111156103d5576000604083870101525b50601f01601f1916929092016040019392505050565b80356001600160a01b038116811461040257600080fd5b919050565b60008060006060848603121561041c57600080fd5b610425846103eb565b9250610433602085016103eb565b9150604084013590509250925092565b60006020828403121561045557600080fd5b61045e826103eb565b9392505050565b6000806040838503121561047857600080fd5b610481836103eb565b946020939093013593505050565b600181811c908216806104a357607f821691505b602082108114156104c457634e487b7160e01b600052602260045260246000fd5b50919050565b634e487b7160e01b600052601160045260246000fd5b6000828210156104f2576104f26104ca565b500390565b6000821982111561050a5761050a6104ca565b50019056fea264697066735822122056072d2cca3e7c1e4a14c6f2e407c15e024d02e7c19d74b88bc09c8c19bf8ab164736f6c634300080c0033",
    "sourcePath": "/Users/micsoftware/Projects/blockchain/defi-staking-app-starter/defi-staking-app-starter/contracts/Tether.sol",
    "compiler": {
        "name": "solc",
        "version": "0.8.12+commit.f00d7308"
    },
    "functionHashes": {
        "balanceOf(address)": "70a08231",
        "decimals()": "313ce567",
        "minter()": "07546172",
        "name()": "06fdde03",
        "symbol()": "95d89b41",
        "totalSupply()": "18160ddd",
        "transfer(address,uint256)": "a9059cbb",
        "transferFrom(address,address,uint256)": "23b872dd"
    },
    "gasEstimates": {
        "creation": {
            "codeDepositCost": "269800",
            "executionCost": "infinite",
            "totalCost": "infinite"
        },
        "external": {
            "balanceOf(address)": "2541",
            "decimals()": "2313",
            "minter()": "2371",
            "name()": "infinite",
            "symbol()": "infinite",
            "totalSupply()": "2340",
            "transfer(address,uint256)": "53236",
            "transferFrom(address,address,uint256)": "infinite"
        }
    }
}