{
  "contractName": "Bank",
  "abi": [
    {
      "inputs": [
        {
          "internalType": "contract Tether",
          "name": "_tether",
          "type": "address"
        },
        {
          "internalType": "contract JavuToken",
          "name": "_javuToken",
          "type": "address"
        }
      ],
      "stateMutability": "nonpayable",
      "type": "constructor"
    },
    {
      "inputs": [
        {
          "internalType": "address",
          "name": "",
          "type": "address"
        }
      ],
      "name": "hasStaked",
      "outputs": [
        {
          "internalType": "bool",
          "name": "",
          "type": "bool"
        }
      ],
      "stateMutability": "view",
      "type": "function",
      "constant": true
    },
    {
      "inputs": [
        {
          "internalType": "address",
          "name": "",
          "type": "address"
        }
      ],
      "name": "isStaking",
      "outputs": [
        {
          "internalType": "bool",
          "name": "",
          "type": "bool"
        }
      ],
      "stateMutability": "view",
      "type": "function",
      "constant": true
    },
    {
      "inputs": [],
      "name": "javuToken",
      "outputs": [
        {
          "internalType": "contract JavuToken",
          "name": "",
          "type": "address"
        }
      ],
      "stateMutability": "view",
      "type": "function",
      "constant": true
    },
    {
      "inputs": [],
      "name": "name",
      "outputs": [
        {
          "internalType": "string",
          "name": "",
          "type": "string"
        }
      ],
      "stateMutability": "view",
      "type": "function",
      "constant": true
    },
    {
      "inputs": [],
      "name": "owner",
      "outputs": [
        {
          "internalType": "address",
          "name": "",
          "type": "address"
        }
      ],
      "stateMutability": "view",
      "type": "function",
      "constant": true
    },
    {
      "inputs": [
        {
          "internalType": "uint256",
          "name": "",
          "type": "uint256"
        }
      ],
      "name": "stakers",
      "outputs": [
        {
          "internalType": "address",
          "name": "",
          "type": "address"
        }
      ],
      "stateMutability": "view",
      "type": "function",
      "constant": true
    },
    {
      "inputs": [
        {
          "internalType": "address",
          "name": "",
          "type": "address"
        }
      ],
      "name": "stakingBalance",
      "outputs": [
        {
          "internalType": "uint256",
          "name": "",
          "type": "uint256"
        }
      ],
      "stateMutability": "view",
      "type": "function",
      "constant": true
    },
    {
      "inputs": [],
      "name": "tether",
      "outputs": [
        {
          "internalType": "contract Tether",
          "name": "",
          "type": "address"
        }
      ],
      "stateMutability": "view",
      "type": "function",
      "constant": true
    },
    {
      "inputs": [
        {
          "internalType": "uint256",
          "name": "_amount",
          "type": "uint256"
        }
      ],
      "name": "depositToken",
      "outputs": [],
      "stateMutability": "nonpayable",
      "type": "function"
    },
    {
      "inputs": [],
      "name": "issueToken",
      "outputs": [],
      "stateMutability": "nonpayable",
      "type": "function"
    },
    {
      "inputs": [],
      "name": "unstakeToken",
      "outputs": [],
      "stateMutability": "nonpayable",
      "type": "function"
    },
    {
      "inputs": [
        {
          "internalType": "address",
          "name": "wallet",
          "type": "address"
        }
      ],
      "name": "customerBalance",
      "outputs": [
        {
          "internalType": "uint256",
          "name": "",
          "type": "uint256"
        }
      ],
      "stateMutability": "view",
      "type": "function",
      "constant": true
    }
  ],
  "bytecode": "0x60806040526040518060400160405280600e81526020017f42616e6b206f662043727970746f000000000000000000000000000000000000815250600090805190602001906200005192919062000150565b503480156200005f57600080fd5b506040516200157b3803806200157b8339818101604052810190620000859190620002c3565b81600260006101000a81548173ffffffffffffffffffffffffffffffffffffffff021916908373ffffffffffffffffffffffffffffffffffffffff16021790555080600360006101000a81548173ffffffffffffffffffffffffffffffffffffffff021916908373ffffffffffffffffffffffffffffffffffffffff16021790555033600160006101000a81548173ffffffffffffffffffffffffffffffffffffffff021916908373ffffffffffffffffffffffffffffffffffffffff16021790555050506200036f565b8280546200015e9062000339565b90600052602060002090601f016020900481019282620001825760008555620001ce565b82601f106200019d57805160ff1916838001178555620001ce565b82800160010185558215620001ce579182015b82811115620001cd578251825591602001919060010190620001b0565b5b509050620001dd9190620001e1565b5090565b5b80821115620001fc576000816000905550600101620001e2565b5090565b600080fd5b600073ffffffffffffffffffffffffffffffffffffffff82169050919050565b6000620002328262000205565b9050919050565b6000620002468262000225565b9050919050565b620002588162000239565b81146200026457600080fd5b50565b60008151905062000278816200024d565b92915050565b60006200028b8262000225565b9050919050565b6200029d816200027e565b8114620002a957600080fd5b50565b600081519050620002bd8162000292565b92915050565b60008060408385031215620002dd57620002dc62000200565b5b6000620002ed8582860162000267565b92505060206200030085828601620002ac565b9150509250929050565b7f4e487b7100000000000000000000000000000000000000000000000000000000600052602260045260246000fd5b600060028204905060018216806200035257607f821691505b602082108114156200036957620003686200030a565b5b50919050565b6111fc806200037f6000396000f3fe608060405234801561001057600080fd5b50600436106100b45760003560e01c80636f49712b116100715780636f49712b1461017b5780638da5cb5b146101ab578063a1ee8c78146101c9578063c93c8f34146101d3578063cfa18d6914610203578063fd5e6dd114610221576100b4565b806306fdde03146100b957806320eb640c146100d757806337ebe47b146100e157806345bc78ab146101115780635efc071a146101415780636215be771461015f575b600080fd5b6100c1610251565b6040516100ce9190610b6a565b60405180910390f35b6100df6102df565b005b6100fb60048036038101906100f69190610bef565b6104a7565b6040516101089190610c35565b60405180910390f35b61012b60048036038101906101269190610bef565b6104f0565b6040516101389190610c35565b60405180910390f35b610149610508565b6040516101569190610caf565b60405180910390f35b61017960048036038101906101749190610cf6565b61052e565b005b61019560048036038101906101909190610bef565b61080a565b6040516101a29190610d3e565b60405180910390f35b6101b361082a565b6040516101c09190610d68565b60405180910390f35b6101d1610850565b005b6101ed60048036038101906101e89190610bef565b610a4c565b6040516101fa9190610d3e565b60405180910390f35b61020b610a6c565b6040516102189190610da4565b60405180910390f35b61023b60048036038101906102369190610cf6565b610a92565b6040516102489190610d68565b60405180910390f35b6000805461025e90610dee565b80601f016020809104026020016040519081016040528092919081815260200182805461028a90610dee565b80156102d75780601f106102ac576101008083540402835291602001916102d7565b820191906000526020600020905b8154815290600101906020018083116102ba57829003601f168201915b505050505081565b6000600760003373ffffffffffffffffffffffffffffffffffffffff1673ffffffffffffffffffffffffffffffffffffffff16815260200190815260200160002054905060008111610366576040517f08c379a000000000000000000000000000000000000000000000000000000000815260040161035d90610e92565b60405180910390fd5b600260009054906101000a900473ffffffffffffffffffffffffffffffffffffffff1673ffffffffffffffffffffffffffffffffffffffff1663a9059cbb33836040518363ffffffff1660e01b81526004016103c3929190610eb2565b6020604051808303816000875af11580156103e2573d6000803e3d6000fd5b505050506040513d601f19601f820116820180604052508101906104069190610f07565b506000600760003373ffffffffffffffffffffffffffffffffffffffff1673ffffffffffffffffffffffffffffffffffffffff168152602001908152602001600020819055506000600660003373ffffffffffffffffffffffffffffffffffffffff1673ffffffffffffffffffffffffffffffffffffffff16815260200190815260200160002060006101000a81548160ff02191690831515021790555050565b6000600760008373ffffffffffffffffffffffffffffffffffffffff1673ffffffffffffffffffffffffffffffffffffffff168152602001908152602001600020549050919050565b60076020528060005260406000206000915090505481565b600260009054906101000a900473ffffffffffffffffffffffffffffffffffffffff1681565b60008111610571576040517f08c379a000000000000000000000000000000000000000000000000000000000815260040161056890610fa6565b60405180910390fd5b600260009054906101000a900473ffffffffffffffffffffffffffffffffffffffff1673ffffffffffffffffffffffffffffffffffffffff166323b872dd3330846040518463ffffffff1660e01b81526004016105d093929190610fc6565b6020604051808303816000875af11580156105ef573d6000803e3d6000fd5b505050506040513d601f19601f820116820180604052508101906106139190610f07565b5080600760003373ffffffffffffffffffffffffffffffffffffffff1673ffffffffffffffffffffffffffffffffffffffff1681526020019081526020016000205461065f919061102c565b600760003373ffffffffffffffffffffffffffffffffffffffff1673ffffffffffffffffffffffffffffffffffffffff16815260200190815260200160002081905550600560003373ffffffffffffffffffffffffffffffffffffffff1673ffffffffffffffffffffffffffffffffffffffff16815260200190815260200160002060009054906101000a900460ff16610757576004339080600181540180825580915050600190039060005260206000200160009091909190916101000a81548173ffffffffffffffffffffffffffffffffffffffff021916908373ffffffffffffffffffffffffffffffffffffffff1602179055505b6001600560003373ffffffffffffffffffffffffffffffffffffffff1673ffffffffffffffffffffffffffffffffffffffff16815260200190815260200160002060006101000a81548160ff0219169083151502179055506001600660003373ffffffffffffffffffffffffffffffffffffffff1673ffffffffffffffffffffffffffffffffffffffff16815260200190815260200160002060006101000a81548160ff02191690831515021790555050565b60066020528060005260406000206000915054906101000a900460ff1681565b600160009054906101000a900473ffffffffffffffffffffffffffffffffffffffff1681565b600160009054906101000a900473ffffffffffffffffffffffffffffffffffffffff1673ffffffffffffffffffffffffffffffffffffffff163373ffffffffffffffffffffffffffffffffffffffff16146108e0576040517f08c379a00000000000000000000000000000000000000000000000000000000081526004016108d7906110ce565b60405180910390fd5b60005b600480549050811015610a4957600060048281548110610906576109056110ee565b5b9060005260206000200160009054906101000a900473ffffffffffffffffffffffffffffffffffffffff1690506000600760008373ffffffffffffffffffffffffffffffffffffffff1673ffffffffffffffffffffffffffffffffffffffff1681526020019081526020016000205490506000600a82610986919061114c565b90506000811115610a3357600360009054906101000a900473ffffffffffffffffffffffffffffffffffffffff1673ffffffffffffffffffffffffffffffffffffffff1663a9059cbb84836040518363ffffffff1660e01b81526004016109ee929190610eb2565b6020604051808303816000875af1158015610a0d573d6000803e3d6000fd5b505050506040513d601f19601f82011682018060405250810190610a319190610f07565b505b5050508080610a419061117d565b9150506108e3565b50565b60056020528060005260406000206000915054906101000a900460ff1681565b600360009054906101000a900473ffffffffffffffffffffffffffffffffffffffff1681565b60048181548110610aa257600080fd5b906000526020600020016000915054906101000a900473ffffffffffffffffffffffffffffffffffffffff1681565b600081519050919050565b600082825260208201905092915050565b60005b83811015610b0b578082015181840152602081019050610af0565b83811115610b1a576000848401525b50505050565b6000601f19601f8301169050919050565b6000610b3c82610ad1565b610b468185610adc565b9350610b56818560208601610aed565b610b5f81610b20565b840191505092915050565b60006020820190508181036000830152610b848184610b31565b905092915050565b600080fd5b600073ffffffffffffffffffffffffffffffffffffffff82169050919050565b6000610bbc82610b91565b9050919050565b610bcc81610bb1565b8114610bd757600080fd5b50565b600081359050610be981610bc3565b92915050565b600060208284031215610c0557610c04610b8c565b5b6000610c1384828501610bda565b91505092915050565b6000819050919050565b610c2f81610c1c565b82525050565b6000602082019050610c4a6000830184610c26565b92915050565b6000819050919050565b6000610c75610c70610c6b84610b91565b610c50565b610b91565b9050919050565b6000610c8782610c5a565b9050919050565b6000610c9982610c7c565b9050919050565b610ca981610c8e565b82525050565b6000602082019050610cc46000830184610ca0565b92915050565b610cd381610c1c565b8114610cde57600080fd5b50565b600081359050610cf081610cca565b92915050565b600060208284031215610d0c57610d0b610b8c565b5b6000610d1a84828501610ce1565b91505092915050565b60008115159050919050565b610d3881610d23565b82525050565b6000602082019050610d536000830184610d2f565b92915050565b610d6281610bb1565b82525050565b6000602082019050610d7d6000830184610d59565b92915050565b6000610d8e82610c7c565b9050919050565b610d9e81610d83565b82525050565b6000602082019050610db96000830184610d95565b92915050565b7f4e487b7100000000000000000000000000000000000000000000000000000000600052602260045260246000fd5b60006002820490506001821680610e0657607f821691505b60208210811415610e1a57610e19610dbf565b5b50919050565b7f4e6f2074657468657220746f6b656e20617661696c61626c6520746f20756e7360008201527f74616b6500000000000000000000000000000000000000000000000000000000602082015250565b6000610e7c602483610adc565b9150610e8782610e20565b604082019050919050565b60006020820190508181036000830152610eab81610e6f565b9050919050565b6000604082019050610ec76000830185610d59565b610ed46020830184610c26565b9392505050565b610ee481610d23565b8114610eef57600080fd5b50565b600081519050610f0181610edb565b92915050565b600060208284031215610f1d57610f1c610b8c565b5b6000610f2b84828501610ef2565b91505092915050565b7f7374616b696e6720616d6f756e74206d7573742062652067726561746572207460008201527f68616e207a65726f000000000000000000000000000000000000000000000000602082015250565b6000610f90602883610adc565b9150610f9b82610f34565b604082019050919050565b60006020820190508181036000830152610fbf81610f83565b9050919050565b6000606082019050610fdb6000830186610d59565b610fe86020830185610d59565b610ff56040830184610c26565b949350505050565b7f4e487b7100000000000000000000000000000000000000000000000000000000600052601160045260246000fd5b600061103782610c1c565b915061104283610c1c565b9250827fffffffffffffffffffffffffffffffffffffffffffffffffffffffffffffffff0382111561107757611076610ffd565b5b828201905092915050565b7f63616c6c6572206d75737420626520746865206f776e65720000000000000000600082015250565b60006110b8601883610adc565b91506110c382611082565b602082019050919050565b600060208201905081810360008301526110e7816110ab565b9050919050565b7f4e487b7100000000000000000000000000000000000000000000000000000000600052603260045260246000fd5b7f4e487b7100000000000000000000000000000000000000000000000000000000600052601260045260246000fd5b600061115782610c1c565b915061116283610c1c565b9250826111725761117161111d565b5b828204905092915050565b600061118882610c1c565b91507fffffffffffffffffffffffffffffffffffffffffffffffffffffffffffffffff8214156111bb576111ba610ffd565b5b60018201905091905056fea264697066735822122008ad340a91e41dac054d38b9b9c57fadb0f02889a0fd5e026c9b281c3612f02864736f6c634300080a0033",
  "immutableReferences": {},
  "source": "// SPDX-License-Identifier: MIT\npragma solidity >=0.4.22 <0.9.0;\n\nimport \"./Tether.sol\";\nimport \"./JavuToken.sol\";\n\ncontract Bank {\n    string public name = \"Bank of Crypto\";\n    address public owner;\n    Tether public tether;\n    JavuToken public javuToken;\n    address[] public stakers;\n    mapping(address => bool) public hasStaked;\n    mapping(address => bool) public isStaking;\n    mapping(address => uint256) public stakingBalance;\n    uint256 private constant STAKE_PERCENTAGE = 10;\n\n    constructor(Tether _tether, JavuToken _javuToken) {\n        tether = _tether;\n        javuToken = _javuToken;\n        owner = msg.sender;\n    }\n\n    // Stake/deposit token\n    function depositToken(uint256 _amount) public {\n        // make sure staking amount is greater than 0\n        require(_amount > 0, \"staking amount must be greater than zero\");\n\n        // transfer tether token to smart contract for staking\n        tether.transferFrom(msg.sender, address(this), _amount);\n\n        // update staking balance of sender\n        stakingBalance[msg.sender] = stakingBalance[msg.sender] + _amount;\n\n        // check if sender has staked. otherwise, add to list of stakers\n        if (!hasStaked[msg.sender]) {\n            stakers.push(msg.sender);\n        }\n\n        // update staking status\n        hasStaked[msg.sender] = true;\n        isStaking[msg.sender] = true;\n    }\n\n    // Issue rewards/tokens to customer\n    function issueToken() public {\n        require(msg.sender == owner, \"caller must be the owner\");\n        for (uint256 index = 0; index < stakers.length; index++) {\n            address staker = stakers[index];\n            uint256 balance = stakingBalance[staker];\n            uint256 rewardAmount = balance / STAKE_PERCENTAGE;\n            // transfer reward to staker/customer\n            if (rewardAmount > 0) {\n                javuToken.transfer(staker, rewardAmount);\n            }\n        }\n    }\n\n    // Unstake token\n    function unstakeToken() public {\n        // get customer staking balance\n        uint256 balance = stakingBalance[msg.sender];\n        require(balance > 0, \"No tether token available to unstake\");\n        //transfer tether token to customer from smart contract\n        tether.transfer(msg.sender, balance);\n\n        //update staking balance\n        stakingBalance[msg.sender] = 0;\n\n        //update staking status.\n        isStaking[msg.sender] = false;\n    }\n\n    // get customer's staking balance\n    function customerBalance(address wallet) public view returns (uint256) {\n        return stakingBalance[wallet];\n    }\n}\n",
  "sourcePath": "/Users/micsoftware/Projects/blockchain/defi-staking-app-starter/defi-staking-app-starter/contracts/Bank.sol",
  "compiler": {
    "name": "solc",
    "version": "0.8.10+commit.fc410830.Emscripten.clang"
  },
  "schemaVersion": "3.4.4",
  "updatedAt": "2022-03-28T03:10:11.732Z",
  "networkType": "ethereum",
  "devdoc": {
    "kind": "dev",
    "methods": {},
    "version": 1
  },
  "userdoc": {
    "kind": "user",
    "methods": {},
    "version": 1
  }
}