{
  "contractName": "Tether",
  "abi": [
    {
      "inputs": [],
      "stateMutability": "nonpayable",
      "type": "constructor"
    },
    {
      "anonymous": false,
      "inputs": [
        {
          "indexed": true,
          "internalType": "address",
          "name": "owner",
          "type": "address"
        },
        {
          "indexed": true,
          "internalType": "address",
          "name": "spender",
          "type": "address"
        },
        {
          "indexed": false,
          "internalType": "uint256",
          "name": "value",
          "type": "uint256"
        }
      ],
      "name": "Approval",
      "type": "event"
    },
    {
      "anonymous": false,
      "inputs": [
        {
          "indexed": true,
          "internalType": "address",
          "name": "from",
          "type": "address"
        },
        {
          "indexed": true,
          "internalType": "address",
          "name": "to",
          "type": "address"
        },
        {
          "indexed": false,
          "internalType": "uint256",
          "name": "value",
          "type": "uint256"
        }
      ],
      "name": "Transfer",
      "type": "event"
    },
    {
      "inputs": [
        {
          "internalType": "address",
          "name": "",
          "type": "address"
        },
        {
          "internalType": "address",
          "name": "",
          "type": "address"
        }
      ],
      "name": "allowed",
      "outputs": [
        {
          "internalType": "uint256",
          "name": "",
          "type": "uint256"
        }
      ],
      "stateMutability": "view",
      "type": "function",
      "constant": true
    },
    {
      "inputs": [
        {
          "internalType": "address",
          "name": "",
          "type": "address"
        }
      ],
      "name": "balanceOf",
      "outputs": [
        {
          "internalType": "uint256",
          "name": "",
          "type": "uint256"
        }
      ],
      "stateMutability": "view",
      "type": "function",
      "constant": true
    },
    {
      "inputs": [],
      "name": "decimals",
      "outputs": [
        {
          "internalType": "uint8",
          "name": "",
          "type": "uint8"
        }
      ],
      "stateMutability": "view",
      "type": "function",
      "constant": true
    },
    {
      "inputs": [],
      "name": "minter",
      "outputs": [
        {
          "internalType": "address",
          "name": "",
          "type": "address"
        }
      ],
      "stateMutability": "view",
      "type": "function",
      "constant": true
    },
    {
      "inputs": [],
      "name": "name",
      "outputs": [
        {
          "internalType": "string",
          "name": "",
          "type": "string"
        }
      ],
      "stateMutability": "view",
      "type": "function",
      "constant": true
    },
    {
      "inputs": [],
      "name": "symbol",
      "outputs": [
        {
          "internalType": "string",
          "name": "",
          "type": "string"
        }
      ],
      "stateMutability": "view",
      "type": "function",
      "constant": true
    },
    {
      "inputs": [],
      "name": "totalSupply",
      "outputs": [
        {
          "internalType": "uint256",
          "name": "",
          "type": "uint256"
        }
      ],
      "stateMutability": "view",
      "type": "function",
      "constant": true
    },
    {
      "inputs": [
        {
          "internalType": "address",
          "name": "to",
          "type": "address"
        },
        {
          "internalType": "uint256",
          "name": "value",
          "type": "uint256"
        }
      ],
      "name": "transfer",
      "outputs": [
        {
          "internalType": "bool",
          "name": "success",
          "type": "bool"
        }
      ],
      "stateMutability": "nonpayable",
      "type": "function"
    },
    {
      "inputs": [
        {
          "internalType": "address",
          "name": "from",
          "type": "address"
        },
        {
          "internalType": "address",
          "name": "to",
          "type": "address"
        },
        {
          "internalType": "uint256",
          "name": "value",
          "type": "uint256"
        }
      ],
      "name": "transferFrom",
      "outputs": [
        {
          "internalType": "bool",
          "name": "success",
          "type": "bool"
        }
      ],
      "stateMutability": "nonpayable",
      "type": "function"
    },
    {
      "inputs": [
        {
          "internalType": "address",
          "name": "accountAddress",
          "type": "address"
        }
      ],
      "name": "getBalance",
      "outputs": [
        {
          "internalType": "uint256",
          "name": "",
          "type": "uint256"
        }
      ],
      "stateMutability": "view",
      "type": "function",
      "constant": true
    },
    {
      "inputs": [
        {
          "internalType": "address",
          "name": "_spender",
          "type": "address"
        },
        {
          "internalType": "uint256",
          "name": "_value",
          "type": "uint256"
        }
      ],
      "name": "approve",
      "outputs": [
        {
          "internalType": "bool",
          "name": "success",
          "type": "bool"
        }
      ],
      "stateMutability": "nonpayable",
      "type": "function"
    },
    {
      "inputs": [
        {
          "internalType": "address",
          "name": "_owner",
          "type": "address"
        },
        {
          "internalType": "address",
          "name": "_spender",
          "type": "address"
        }
      ],
      "name": "allowance",
      "outputs": [
        {
          "internalType": "uint256",
          "name": "remaining",
          "type": "uint256"
        }
      ],
      "stateMutability": "view",
      "type": "function",
      "constant": true
    }
  ],
  "bytecode": "0x60806040526040518060400160405280601381526020017f4d6f636b65642054657468657220546f6b656e00000000000000000000000000815250600090805190602001906200005192919062000187565b506040518060400160405280600581526020017f6d55534454000000000000000000000000000000000000000000000000000000815250600190805190602001906200009f92919062000187565b5069d3c21bcecceda10000006002556012600360006101000a81548160ff021916908360ff16021790555033600360016101000a81548173ffffffffffffffffffffffffffffffffffffffff021916908373ffffffffffffffffffffffffffffffffffffffff1602179055503480156200011857600080fd5b5060025460046000600360019054906101000a900473ffffffffffffffffffffffffffffffffffffffff1673ffffffffffffffffffffffffffffffffffffffff1673ffffffffffffffffffffffffffffffffffffffff168152602001908152602001600020819055506200029c565b828054620001959062000266565b90600052602060002090601f016020900481019282620001b9576000855562000205565b82601f10620001d457805160ff191683800117855562000205565b8280016001018555821562000205579182015b8281111562000204578251825591602001919060010190620001e7565b5b50905062000214919062000218565b5090565b5b808211156200023357600081600090555060010162000219565b5090565b7f4e487b7100000000000000000000000000000000000000000000000000000000600052602260045260246000fd5b600060028204905060018216806200027f57607f821691505b6020821081141562000296576200029562000237565b5b50919050565b610fe180620002ac6000396000f3fe608060405234801561001057600080fd5b50600436106100b45760003560e01c80635c658165116100715780635c6581651461019157806370a08231146101c157806395d89b41146101f1578063a9059cbb1461020f578063dd62ed3e1461023f578063f8b2cb4f1461026f576100b4565b806306fdde03146100b957806307546172146100d7578063095ea7b3146100f557806318160ddd1461012557806323b872dd14610143578063313ce56714610173575b600080fd5b6100c161029f565b6040516100ce9190610af1565b60405180910390f35b6100df61032d565b6040516100ec9190610b54565b60405180910390f35b61010f600480360381019061010a9190610bd6565b610353565b60405161011c9190610c31565b60405180910390f35b61012d610445565b60405161013a9190610c5b565b60405180910390f35b61015d60048036038101906101589190610c76565b61044b565b60405161016a9190610c31565b60405180910390f35b61017b61070b565b6040516101889190610ce5565b60405180910390f35b6101ab60048036038101906101a69190610d00565b61071e565b6040516101b89190610c5b565b60405180910390f35b6101db60048036038101906101d69190610d40565b610743565b6040516101e89190610c5b565b60405180910390f35b6101f961075b565b6040516102069190610af1565b60405180910390f35b61022960048036038101906102249190610bd6565b6107e9565b6040516102369190610c31565b60405180910390f35b61025960048036038101906102549190610d00565b610988565b6040516102669190610c5b565b60405180910390f35b61028960048036038101906102849190610d40565b610a0f565b6040516102969190610c5b565b60405180910390f35b600080546102ac90610d9c565b80601f01602080910402602001604051908101604052809291908181526020018280546102d890610d9c565b80156103255780601f106102fa57610100808354040283529160200191610325565b820191906000526020600020905b81548152906001019060200180831161030857829003601f168201915b505050505081565b600360019054906101000a900473ffffffffffffffffffffffffffffffffffffffff1681565b600081600560003373ffffffffffffffffffffffffffffffffffffffff1673ffffffffffffffffffffffffffffffffffffffff16815260200190815260200160002060008573ffffffffffffffffffffffffffffffffffffffff1673ffffffffffffffffffffffffffffffffffffffff168152602001908152602001600020819055508273ffffffffffffffffffffffffffffffffffffffff163373ffffffffffffffffffffffffffffffffffffffff167f8c5be1e5ebec7d5bd14f71427d1e84f3dd0314c0f7b2291e5b200ac8c7c3b925846040516104339190610c5b565b60405180910390a36001905092915050565b60025481565b600080600560008673ffffffffffffffffffffffffffffffffffffffff1673ffffffffffffffffffffffffffffffffffffffff16815260200190815260200160002060003373ffffffffffffffffffffffffffffffffffffffff1673ffffffffffffffffffffffffffffffffffffffff16815260200190815260200160002054905082600460008773ffffffffffffffffffffffffffffffffffffffff1673ffffffffffffffffffffffffffffffffffffffff168152602001908152602001600020541015801561051c5750828110155b61055b576040517f08c379a000000000000000000000000000000000000000000000000000000000815260040161055290610e40565b60405180910390fd5b82600460008673ffffffffffffffffffffffffffffffffffffffff1673ffffffffffffffffffffffffffffffffffffffff16815260200190815260200160002060008282546105aa9190610e8f565b9250508190555082600460008773ffffffffffffffffffffffffffffffffffffffff1673ffffffffffffffffffffffffffffffffffffffff16815260200190815260200160002060008282546106009190610ee5565b9250508190555082600560008773ffffffffffffffffffffffffffffffffffffffff1673ffffffffffffffffffffffffffffffffffffffff16815260200190815260200160002060003373ffffffffffffffffffffffffffffffffffffffff1673ffffffffffffffffffffffffffffffffffffffff16815260200190815260200160002060008282546106939190610ee5565b925050819055508373ffffffffffffffffffffffffffffffffffffffff168573ffffffffffffffffffffffffffffffffffffffff167fddf252ad1be2c89b69c2b068fc378daa952ba7f163c4a11628f55a4df523b3ef856040516106f79190610c5b565b60405180910390a360019150509392505050565b600360009054906101000a900460ff1681565b6005602052816000526040600020602052806000526040600020600091509150505481565b60046020528060005260406000206000915090505481565b6001805461076890610d9c565b80601f016020809104026020016040519081016040528092919081815260200182805461079490610d9c565b80156107e15780601f106107b6576101008083540402835291602001916107e1565b820191906000526020600020905b8154815290600101906020018083116107c457829003601f168201915b505050505081565b600081600460003373ffffffffffffffffffffffffffffffffffffffff1673ffffffffffffffffffffffffffffffffffffffff16815260200190815260200160002054101561086d576040517f08c379a000000000000000000000000000000000000000000000000000000000815260040161086490610f8b565b60405180910390fd5b81600460003373ffffffffffffffffffffffffffffffffffffffff1673ffffffffffffffffffffffffffffffffffffffff16815260200190815260200160002060008282546108bc9190610ee5565b9250508190555081600460008573ffffffffffffffffffffffffffffffffffffffff1673ffffffffffffffffffffffffffffffffffffffff16815260200190815260200160002060008282546109129190610e8f565b925050819055508273ffffffffffffffffffffffffffffffffffffffff163373ffffffffffffffffffffffffffffffffffffffff167fddf252ad1be2c89b69c2b068fc378daa952ba7f163c4a11628f55a4df523b3ef846040516109769190610c5b565b60405180910390a36001905092915050565b6000600560008473ffffffffffffffffffffffffffffffffffffffff1673ffffffffffffffffffffffffffffffffffffffff16815260200190815260200160002060008373ffffffffffffffffffffffffffffffffffffffff1673ffffffffffffffffffffffffffffffffffffffff16815260200190815260200160002054905092915050565b6000600460008373ffffffffffffffffffffffffffffffffffffffff1673ffffffffffffffffffffffffffffffffffffffff168152602001908152602001600020549050919050565b600081519050919050565b600082825260208201905092915050565b60005b83811015610a92578082015181840152602081019050610a77565b83811115610aa1576000848401525b50505050565b6000601f19601f8301169050919050565b6000610ac382610a58565b610acd8185610a63565b9350610add818560208601610a74565b610ae681610aa7565b840191505092915050565b60006020820190508181036000830152610b0b8184610ab8565b905092915050565b600073ffffffffffffffffffffffffffffffffffffffff82169050919050565b6000610b3e82610b13565b9050919050565b610b4e81610b33565b82525050565b6000602082019050610b696000830184610b45565b92915050565b600080fd5b610b7d81610b33565b8114610b8857600080fd5b50565b600081359050610b9a81610b74565b92915050565b6000819050919050565b610bb381610ba0565b8114610bbe57600080fd5b50565b600081359050610bd081610baa565b92915050565b60008060408385031215610bed57610bec610b6f565b5b6000610bfb85828601610b8b565b9250506020610c0c85828601610bc1565b9150509250929050565b60008115159050919050565b610c2b81610c16565b82525050565b6000602082019050610c466000830184610c22565b92915050565b610c5581610ba0565b82525050565b6000602082019050610c706000830184610c4c565b92915050565b600080600060608486031215610c8f57610c8e610b6f565b5b6000610c9d86828701610b8b565b9350506020610cae86828701610b8b565b9250506040610cbf86828701610bc1565b9150509250925092565b600060ff82169050919050565b610cdf81610cc9565b82525050565b6000602082019050610cfa6000830184610cd6565b92915050565b60008060408385031215610d1757610d16610b6f565b5b6000610d2585828601610b8b565b9250506020610d3685828601610b8b565b9150509250929050565b600060208284031215610d5657610d55610b6f565b5b6000610d6484828501610b8b565b91505092915050565b7f4e487b7100000000000000000000000000000000000000000000000000000000600052602260045260246000fd5b60006002820490506001821680610db457607f821691505b60208210811415610dc857610dc7610d6d565b5b50919050565b7f746f6b656e2062616c616e6365206f7220616c6c6f77616e6365206973206c6f60008201527f776572207468616e20616d6f756e742072657175657374656400000000000000602082015250565b6000610e2a603983610a63565b9150610e3582610dce565b604082019050919050565b60006020820190508181036000830152610e5981610e1d565b9050919050565b7f4e487b7100000000000000000000000000000000000000000000000000000000600052601160045260246000fd5b6000610e9a82610ba0565b9150610ea583610ba0565b9250827fffffffffffffffffffffffffffffffffffffffffffffffffffffffffffffffff03821115610eda57610ed9610e60565b5b828201905092915050565b6000610ef082610ba0565b9150610efb83610ba0565b925082821015610f0e57610f0d610e60565b5b828203905092915050565b7f42616c616e6365206d7573742062652067726561746572207468616e2076616c60008201527f7565000000000000000000000000000000000000000000000000000000000000602082015250565b6000610f75602283610a63565b9150610f8082610f19565b604082019050919050565b60006020820190508181036000830152610fa481610f68565b905091905056fea2646970667358221220f262028dd2db0fa8f1ea138f44ff104f4a571751d773174206b70e5e00e7015c64736f6c634300080a0033",
  "immutableReferences": {},
  "source": "// SPDX-License-Identifier: MIT\npragma solidity >=0.4.22 <0.9.0;\n\ncontract Tether {\n    string public name = \"Mocked Tether Token\";\n    string public symbol = \"mUSDT\";\n    uint256 public totalSupply = 1000000000000000000 * 1000000; //1 millions tokens\n    uint8 public decimals = 18;\n    address public minter = msg.sender;\n    mapping(address => uint256) public balanceOf;\n    mapping(address => mapping(address => uint256)) public allowed;\n\n    constructor() {\n        // set minter's balance  to the total supply\n        balanceOf[minter] = totalSupply;\n    }\n\n    event Transfer(address indexed from, address indexed to, uint256 value);\n\n    event Approval(\n        address indexed owner,\n        address indexed spender,\n        uint256 value\n    );\n\n    function transfer(address to, uint256 value) public returns (bool success) {\n        // validate account balance\n        require(\n            balanceOf[msg.sender] >= value,\n            \"Balance must be greater than value\"\n        );\n\n        // subtract value from balance\n        balanceOf[msg.sender] -= value;\n\n        // add to the receiver's balance\n        balanceOf[to] += value;\n\n        // emit to the world!\n        emit Transfer(msg.sender, to, value);\n\n        // return true if successful\n        return true;\n    }\n\n    function transferFrom(\n        address from,\n        address to,\n        uint256 value\n    ) public returns (bool success) {\n        uint256 allowedValue = allowed[from][msg.sender];\n        require(\n            balanceOf[from] >= value && allowedValue >= value,\n            \"token balance or allowance is lower than amount requested\"\n        );\n        balanceOf[to] += value;\n        balanceOf[from] -= value;\n\n        allowed[from][msg.sender] -= value;\n\n        emit Transfer(from, to, value); //solhint-disable-line indent, no-unused-vars\n        return true;\n    }\n\n    function getBalance(address accountAddress) public view returns (uint256) {\n        return balanceOf[accountAddress];\n    }\n\n    function approve(address _spender, uint256 _value)\n        public\n        returns (bool success)\n    {\n        allowed[msg.sender][_spender] = _value;\n        emit Approval(msg.sender, _spender, _value); //solhint-disable-line indent, no-unused-vars\n        return true;\n    }\n\n    function allowance(address _owner, address _spender)\n        public\n        view\n        returns (uint256 remaining)\n    {\n        return allowed[_owner][_spender];\n    }\n}\n",
  "sourcePath": "/Users/micsoftware/Projects/blockchain/defi-staking-app-starter/defi-staking-app-starter/contracts/Tether.sol",
  "compiler": {
    "name": "solc",
    "version": "0.8.10+commit.fc410830.Emscripten.clang"
  },
  "schemaVersion": "3.4.4",
  "updatedAt": "2022-03-28T03:10:11.713Z",
  "networkType": "ethereum",
  "devdoc": {
    "kind": "dev",
    "methods": {},
    "version": 1
  },
  "userdoc": {
    "kind": "user",
    "methods": {},
    "version": 1
  }
}